:100000000C9462000C948A000C948A000C948A0070
:100010000C948A000C948A000C948A000C948A0038
:100020000C948A000C948A000C948A000C948A0028
:100030000C948A000C948A000C948A000C948A0018
:100040000C94AF020C948A000C947D020C9457021D
:100050000C948A000C948A000C948A000C948A00F8
:100060000C948A000C948A000000000024002700F1
:100070002A0000000000250028002B0000000008D6
:10008000000201000003040700000000000000005F
:1000900000000000230026002900040404040404D6
:1000A0000404020202020202030303030303010227
:1000B00004081020408001020408102001020408F6
:1000C0001020030511241FBECFEFD8E0DEBFCDBF47
:1000D00011E0A0E0B1E0EAE2FDE002C005900D927F
:1000E000A831B107D9F721E0A8E1B1E001C01D9224
:1000F000AE3BB207E1F710E0C2E6D0E004C02197C2
:10010000FE010E948806C136D107C9F70E943E034E
:100110000C9493060C940000CF92DF92EF92FF9222
:100120000F931F93CF93DF936C017A018B01C0E093
:10013000D0E0CE15DF0589F0D8016D918D01D60193
:10014000ED91FC910190F081E02DC6010995892B7C
:1001500011F47E0102C02196ECCFC701DF91CF914F
:100160001F910F91FF90EF90DF90CF900895089529
:1001700080E090E00895FC01538D448D252F30E000
:10018000842F90E0821B930B541710F0CF960895A4
:1001900001970895FC01918D828D981761F0828DF1
:1001A000DF01A80FB11D5D968C91928D9F5F9F73AB
:1001B000928F90E008958FEF9FEF0895FC01918D4D
:1001C000828D981731F0828DE80FF11D858D90E0BA
:1001D00008958FEF9FEF0895FC01918D228D892F57
:1001E00090E0805C9F4F821B91098F73992708953F
:1001F00081E291E00E94EC0021E0892B09F420E0EB
:10020000822F0895FC01848DDF01A80FB11DA35A30
:10021000BF4F2C91848D90E001968F739927848F26
:10022000A689B7892C93A089B1898C9180648C931D
:10023000938D848D981306C00288F389E02D808108
:100240008F7D80830895EF92FF920F931F93CF933A
:10025000DF93EC0181E0888F9B8D8C8D981305C016
:10026000E889F989808185FD24C0F62E0B8D10E088
:100270000F5F1F4F0F731127E02E8C8DE8120CC0FB
:100280000FB607FCFACFE889F989808185FFF5CFA1
:10029000CE010E940201F1CF8B8DFE01E80FF11D0E
:1002A000E35AFF4FF0820B8FEA89FB8980818062DD
:1002B00007C0EE89FF896083E889F98980818064BD
:1002C000808381E090E0DF91CF911F910F91FF90AB
:1002D000EF900895CF93DF93EC01888D8823C9F0C8
:1002E000EA89FB89808185FD05C0A889B9898C913F
:1002F00086FD0FC00FB607FCF5CF808185FFF2CFDA
:10030000A889B9898C9185FFEDCFCE010E940201A9
:10031000E7CFDF91CF91089580E090E0892B29F01D
:100320000E94F80081110C940000089590E0FC01F7
:10033000E458FF4F3491FC01E255FF4F2491FC013A
:10034000E656FF4FE491EE2309F43BC0332339F125
:10035000333091F038F43130A9F0323001F584B502
:100360008F7D12C0373091F03830A1F03430B9F4BD
:10037000809180008F7D03C0809180008F77809373
:1003800080000DC084B58F7784BD09C08091B00016
:100390008F7703C08091B0008F7D8093B000F0E034
:1003A000EE0FFF1FEE58FF4FA591B4918FB7F89451
:1003B000EC91611103C020952E2301C02E2B2C93AC
:1003C0008FBF0895CF93DF9390E0FC01E255FF4F7C
:1003D0002491FC01E656FF4F8491882361F190E05F
:1003E000880F991FFC01E859FF4FC591D491FC017A
:1003F000EE58FF4FA591B491611109C09FB7F894D1
:100400008881209582238883EC912E230BC0623053
:1004100061F49FB7F8943881822F80958323888375
:10042000EC912E2B2C939FBF06C08FB7F894E881D8
:100430002E2B28838FBFDF91CF9108953FB7F8947B
:1004400080911D0190911E01A0911F01B09120018A
:1004500026B5A89B05C02F3F19F00196A11DB11D1F
:100460003FBFBA2FA92F982F8827820F911DA11D5A
:10047000B11DBC01CD0142E0660F771F881F991F97
:100480004A95D1F70895009769F0FC01019000208A
:10049000E9F73197AF01481B590BBC0181E291E0AC
:1004A0000C948C0080E090E008950E948E061F92CC
:1004B0000F920FB60F9211242F933F934F935F9398
:1004C0006F937F938F939F93AF93BF93EF93FF931C
:1004D00081E291E00E940201FF91EF91BF91AF9103
:1004E0009F918F917F916F915F914F913F912F914C
:1004F0000F900FBE0F901F9018951F920F920FB67E
:100500000F9211242F938F939F93EF93FF93E0917A
:100510003101F09132018081E0913701F091380191
:1005200082FD12C0908180913A018F5F8F7320917C
:100530003B01821751F0E0913A01F0E0EF5DFE4F90
:10054000958F80933A0101C08081FF91EF919F9137
:100550008F912F910F900FBE0F901F9018951F92A3
:100560000F920FB60F9211242F933F938F939F9367
:10057000AF93BF938091190190911A01A0911B0133
:10058000B0911C013091180123E0230F2D3720F486
:100590000196A11DB11D05C026E8230F0296A11DDD
:1005A000B11D209318018093190190931A01A09313
:1005B0001B01B0931C0180911D0190911E01A0911F
:1005C0001F01B09120010196A11DB11D80931D0155
:1005D00090931E01A0931F01B0932001BF91AF9192
:1005E0009F918F913F912F910F900FBE0F901F9071
:1005F0001895CF92DF92EF92FF920F931F93E82FFF
:10060000F92F05C0015011092109310961F19081CB
:1006100096239417B9F305C0015011092109310936
:1006200011F1908196239413F7CFC12CD12CE12C9A
:10063000F12C0AC08FEFC81AD80AE80AF80A0C157C
:100640001D052E053F0579F080818623841791F3DF
:100650006C2D7D2D8E2D9F2D1F910F91FF90EF9072
:10066000DF90CF90089560E070E080E090E01F910F
:100670000F91FF90EF90DF90CF900895CF93DF938D
:10068000CDB7DEB7A5970FB6F894DEBF0FBECDBFCE
:10069000789484B5826084BD84B5816084BD85B55D
:1006A000826085BD85B5816085BD80916E00816069
:1006B00080936E001092810080918100826080930F
:1006C0008100809181008160809381008091800011
:1006D0008160809380008091B10084608093B1003C
:1006E0008091B00081608093B00080917A00846036
:1006F00080937A0080917A00826080937A00809162
:100700007A00816080937A0080917A00806880937B
:100710007A001092C100E0913101F091320182E043
:100720008083E0912D01F0912E011082E0912F0144
:10073000F09130018FEC808310923901E091350106
:10074000F091360186E08083E0913301F09134012D
:10075000808180618083E0913301F0913401808158
:1007600088608083E0913301F0913401808180685A
:100770008083E0913301F091340180818F7D80830B
:1007800061E083E00E94E20160E084E00E94E20117
:1007900061E087E00E94E20161E086E00E94E20100
:1007A00061E085E00E94E20161E088E00E94E201F0
:1007B00042EB242E40E0342E5AE0452E512C612C81
:1007C000712C61E083E00E94960183E290E0019742
:1007D000F1F760E083E00E949601F1016491EEE997
:1007E000F0E08491E82FF0E0EE0FFF1FE057FF4F9D
:1007F0008591949100E412E42FE030E0462F0E94AE
:10080000F902611571058105910539F0DC01CB0113
:100810000196A11DB11DBF7003C080E090E0DC0116
:10082000BC01CD0195958795779567950E94DA056E
:100830002DEC3CEC48EE51E40E9430050E94A205EC
:100840006B017C0197FF26C0E0912101F09122010C
:100850000190F081E02D6DE281E291E0099522277F
:100860003327A9012C193D094E095F0919A28E01F0
:100870000F5D1F4FCA01B901A30192010E946606D4
:10088000605DF80162938F01211531054105510525
:1008900089F715C09B01AC0119A28E010F5D1F4F96
:1008A000CA01B901A30192010E946606605DF801C8
:1008B00062938F01211531054105510589F7C80162
:1008C0000E94430282E191E00E94430285E191E0AF
:1008D0000E9443020E941E029B01AC0188EC882EFC
:1008E000912CA12CB12C2AA33BA34CA35DA30E9465
:1008F0001E022AA13BA14CA15DA1DC01CB01821B00
:10090000930BA40BB50B883E9340A105B10548F0AD
:10091000F1E08F1A9108A108B10828513C4F4F4FC0
:100920005F4F81149104A104B104E9F684E0C81674
:10093000D104E104F10484F461E086E00E949601B0
:1009400060E085E00E94960160E087E00E949601E9
:1009500060E088E00E949601D701C6010597A109D1
:10096000B1090297A105B10560F461E086E00E943B
:10097000960161E085E00E94960160E087E00E94B8
:100980009601D701C6010897A109B1090497A105ED
:10099000B10560F460E086E00E94960161E085E0C8
:1009A0000E94960160E087E00E949601D701C6018F
:1009B0000D97A109B1090697A105B10558F460E0AA
:1009C00086E00E94960161E085E00E94960161E068
:1009D00087E014C0E4E1CE16D104E104F10484F010
:1009E00060E086E00E94960160E085E00E9496014A
:1009F00061E087E00E94960161E088E00E94960134
:100A00000E948C01DECEE1E2F1E01382128288EED8
:100A100093E0A0E0B0E084839583A683B78384E06D
:100A200091E09183808385EC90E09587848784ECC6
:100A300090E09787868780EC90E0918B808B81ECAB
:100A400090E0938B828B82EC90E0958B848B86EC8C
:100A500090E0978B868B118E128E138E148E0895D4
:100A60000E9444050C942C060E94250658F00E9412
:100A70001E0640F029F45F3F29F00C941506511131
:100A80000C9460060C941B060E943D0668F39923A3
:100A9000B1F3552391F3951B550BBB27AA2762177A
:100AA0007307840738F09F5F5F4F220F331F441F87
:100AB000AA1FA9F335D00E2E3AF0E0E832D09150BB
:100AC0005040E695001CCAF72BD0FE2F29D0660FA8
:100AD000771F881FBB1F261737074807AB07B0E8EB
:100AE00009F0BB0B802DBF01FF2793585F4F3AF0F1
:100AF0009E3F510578F00C9415060C9460065F3FFC
:100B0000E4F3983ED4F3869577956795B795F79576
:100B10009F5FC9F7880F911D9695879597F908955E
:100B2000E1E0660F771F881FBB1F621773078407FA
:100B3000BA0720F0621B730B840BBA0BEE1F88F709
:100B4000E09508950E94A9056894B1110C9460067F
:100B500008950E94450688F09F5798F0B92F99276D
:100B6000B751B0F0E1F0660F771F881F991F1AF098
:100B7000BA95C9F714C0B13091F00E945F06B1E098
:100B800008950C945F06672F782F8827B85F39F097
:100B9000B93FCCF3869577956795B395D9F73EF431
:100BA00090958095709561957F4F8F4F9F4F0895D9
:100BB000E89409C097FB3EF49095809570956195F7
:100BC0007F4F8F4F9F4F9923A9F0F92F96E9BB27AD
:100BD0009395F695879577956795B795F111F8CF29
:100BE000FAF4BB0F11F460FF1BC06F5F7F4F8F4F94
:100BF0009F4F16C0882311F096E911C0772321F08A
:100C00009EE8872F762F05C0662371F096E8862F21
:100C100070E060E02AF09A95660F771F881FDAF778
:100C2000880F9695879597F9089597F99F6780E8BB
:100C300070E060E008959FEF80EC089500240A942E
:100C40001616170618060906089500240A941216A7
:100C50001306140605060895092E0394000C11F4DA
:100C6000882352F0BB0F40F4BF2B11F460FF04C087
:100C70006F5F7F4F8F4F9F4F089557FD9058440FE0
:100C8000551F59F05F3F71F04795880F97FB991FEB
:100C900061F09F3F79F087950895121613061406A8
:100CA000551FF2CF4695F1DF08C016161706180635
:100CB000991FF1CF86957105610508940895E89410
:100CC000BB2766277727CB0197F90895A1E21A2E53
:100CD000AA1BBB1BFD010DC0AA1FBB1FEE1FFF1FE0
:100CE000A217B307E407F50720F0A21BB30BE40B30
:100CF000F50B661F771F881F991F1A9469F7609577
:100D00007095809590959B01AC01BD01CF01089530
:100D1000EE0FFF1F0590F491E02D099481E090E023
:0A0D2000F8940C949306F894FFCFAA
:100D2A000000000023018C00BB006A01EC00CA002D
:080D3A00DE00636D000D0A00EC
:00000001FF
